{
  "_format": "hh-sol-artifact-1",
  "contractName": "ReceiveRandom",
  "sourceName": "contracts/ReceiveRandom.sol",
  "abi": [
    {
      "inputs": [
        {
          "internalType": "address",
          "name": "gateway_",
          "type": "address"
        },
        {
          "internalType": "address",
          "name": "gasReceiver_",
          "type": "address"
        },
        {
          "internalType": "string",
          "name": "chainName_",
          "type": "string"
        }
      ],
      "stateMutability": "nonpayable",
      "type": "constructor"
    },
    {
      "inputs": [],
      "name": "InvalidAddress",
      "type": "error"
    },
    {
      "inputs": [],
      "name": "NotApprovedByGateway",
      "type": "error"
    },
    {
      "inputs": [],
      "name": "chainName",
      "outputs": [
        {
          "internalType": "string",
          "name": "",
          "type": "string"
        }
      ],
      "stateMutability": "view",
      "type": "function"
    },
    {
      "inputs": [
        {
          "internalType": "bytes32",
          "name": "commandId",
          "type": "bytes32"
        },
        {
          "internalType": "string",
          "name": "sourceChain",
          "type": "string"
        },
        {
          "internalType": "string",
          "name": "sourceAddress",
          "type": "string"
        },
        {
          "internalType": "bytes",
          "name": "payload",
          "type": "bytes"
        }
      ],
      "name": "execute",
      "outputs": [],
      "stateMutability": "nonpayable",
      "type": "function"
    },
    {
      "inputs": [
        {
          "internalType": "bytes32",
          "name": "commandId",
          "type": "bytes32"
        },
        {
          "internalType": "string",
          "name": "sourceChain",
          "type": "string"
        },
        {
          "internalType": "string",
          "name": "sourceAddress",
          "type": "string"
        },
        {
          "internalType": "bytes",
          "name": "payload",
          "type": "bytes"
        },
        {
          "internalType": "string",
          "name": "tokenSymbol",
          "type": "string"
        },
        {
          "internalType": "uint256",
          "name": "amount",
          "type": "uint256"
        }
      ],
      "name": "executeWithToken",
      "outputs": [],
      "stateMutability": "nonpayable",
      "type": "function"
    },
    {
      "inputs": [],
      "name": "gasService",
      "outputs": [
        {
          "internalType": "contract IAxelarGasService",
          "name": "",
          "type": "address"
        }
      ],
      "stateMutability": "view",
      "type": "function"
    },
    {
      "inputs": [],
      "name": "gateway",
      "outputs": [
        {
          "internalType": "contract IAxelarGateway",
          "name": "",
          "type": "address"
        }
      ],
      "stateMutability": "view",
      "type": "function"
    },
    {
      "inputs": [],
      "name": "storedRandom",
      "outputs": [
        {
          "internalType": "bytes",
          "name": "random",
          "type": "bytes"
        }
      ],
      "stateMutability": "view",
      "type": "function"
    }
  ],
  "bytecode": "0x60c06040523480156200001157600080fd5b5060405162000ce438038062000ce48339810160408190526200003491620000bb565b826001600160a01b0381166200005d5760405163e6c4247b60e01b815260040160405180910390fd5b6001600160a01b03908116608052821660a05260006200007e828262000244565b5050505062000310565b80516001600160a01b0381168114620000a057600080fd5b919050565b634e487b7160e01b600052604160045260246000fd5b600080600060608486031215620000d157600080fd5b620000dc8462000088565b92506020620000ed81860162000088565b60408601519093506001600160401b03808211156200010b57600080fd5b818701915087601f8301126200012057600080fd5b815181811115620001355762000135620000a5565b604051601f8201601f19908116603f01168101908382118183101715620001605762000160620000a5565b816040528281528a868487010111156200017957600080fd5b600093505b828410156200019d57848401860151818501870152928501926200017e565b60008684830101528096505050505050509250925092565b600181811c90821680620001ca57607f821691505b602082108103620001eb57634e487b7160e01b600052602260045260246000fd5b50919050565b601f8211156200023f57600081815260208120601f850160051c810160208610156200021a5750805b601f850160051c820191505b818110156200023b5782815560010162000226565b5050505b505050565b81516001600160401b03811115620002605762000260620000a5565b6200027881620002718454620001b5565b84620001f1565b602080601f831160018114620002b05760008415620002975750858301515b600019600386901b1c1916600185901b1785556200023b565b600085815260208120601f198616915b82811015620002e157888601518255948401946001909101908401620002c0565b5085821015620003005787850151600019600388901b60f8161c191681555b5050505050600190811b01905550565b60805160a0516109a262000342600039600060ed015260008181606c0152818161014801526102b901526109a26000f3fe608060405234801561001057600080fd5b50600436106100625760003560e01c8063116191b6146100675780631a98b2e0146100ab5780631c93b03a146100c057806349160658146100d55780636a22d8cc146100e8578063cc395c751461010f575b600080fd5b61008e7f000000000000000000000000000000000000000000000000000000000000000081565b6040516001600160a01b0390911681526020015b60405180910390f35b6100be6100b9366004610483565b610117565b005b6100c86101fa565b6040516100a291906105a3565b6100be6100e33660046105bd565b610288565b61008e7f000000000000000000000000000000000000000000000000000000000000000081565b6100c8610370565b60008585604051610129929190610661565b604051908190038120631876eed960e01b825291506001600160a01b037f00000000000000000000000000000000000000000000000000000000000000001690631876eed99061018d908e908e908e908e908e9089908d908d908d9060040161069a565b6020604051808303816000875af11580156101ac573d6000803e3d6000fd5b505050506040513d601f19601f820116820180604052508101906101d091906106f9565b6101ed57604051631403112d60e21b815260040160405180910390fd5b5050505050505050505050565b600080546102079061071b565b80601f01602080910402602001604051908101604052809291908181526020018280546102339061071b565b80156102805780601f1061025557610100808354040283529160200191610280565b820191906000526020600020905b81548152906001019060200180831161026357829003601f168201915b505050505081565b6000828260405161029a929190610661565b604051908190038120635f6970c360e01b825291506001600160a01b037f00000000000000000000000000000000000000000000000000000000000000001690635f6970c3906102f8908b908b908b908b908b908990600401610755565b6020604051808303816000875af1158015610317573d6000803e3d6000fd5b505050506040513d601f19601f8201168201806040525081019061033b91906106f9565b61035857604051631403112d60e21b815260040160405180910390fd5b610366878787878787610402565b5050505050505050565b60018054819061037f9061071b565b80601f01602080910402602001604051908101604052809291908181526020018280546103ab9061071b565b80156103f85780601f106103cd576101008083540402835291602001916103f8565b820191906000526020600020905b8154815290600101906020018083116103db57829003601f168201915b5050505050905081565b6000610410828401846107ac565b604080516020810190915281815290915060018061042e84826108ac565b50505050505050505050565b60008083601f84011261044c57600080fd5b50813567ffffffffffffffff81111561046457600080fd5b60208301915083602082850101111561047c57600080fd5b9250929050565b60008060008060008060008060008060c08b8d0312156104a257600080fd5b8a35995060208b013567ffffffffffffffff808211156104c157600080fd5b6104cd8e838f0161043a565b909b50995060408d01359150808211156104e657600080fd5b6104f28e838f0161043a565b909950975060608d013591508082111561050b57600080fd5b6105178e838f0161043a565b909750955060808d013591508082111561053057600080fd5b5061053d8d828e0161043a565b9150809450508092505060a08b013590509295989b9194979a5092959850565b6000815180845260005b8181101561058357602081850181015186830182015201610567565b506000602082860101526020601f19601f83011685010191505092915050565b6020815260006105b6602083018461055d565b9392505050565b60008060008060008060006080888a0312156105d857600080fd5b87359650602088013567ffffffffffffffff808211156105f757600080fd5b6106038b838c0161043a565b909850965060408a013591508082111561061c57600080fd5b6106288b838c0161043a565b909650945060608a013591508082111561064157600080fd5b5061064e8a828b0161043a565b989b979a50959850939692959293505050565b8183823760009101908152919050565b81835281816020850137506000828201602090810191909152601f909101601f19169091010190565b89815260c0602082015260006106b460c083018a8c610671565b82810360408401526106c781898b610671565b905086606084015282810360808401526106e2818688610671565b9150508260a08301529a9950505050505050505050565b60006020828403121561070b57600080fd5b815180151581146105b657600080fd5b600181811c9082168061072f57607f821691505b60208210810361074f57634e487b7160e01b600052602260045260246000fd5b50919050565b86815260806020820152600061076f608083018789610671565b8281036040840152610782818688610671565b915050826060830152979650505050505050565b634e487b7160e01b600052604160045260246000fd5b6000602082840312156107be57600080fd5b813567ffffffffffffffff808211156107d657600080fd5b818401915084601f8301126107ea57600080fd5b8135818111156107fc576107fc610796565b604051601f8201601f19908116603f0116810190838211818310171561082457610824610796565b8160405282815287602084870101111561083d57600080fd5b826020860160208301376000928101602001929092525095945050505050565b601f8211156108a757600081815260208120601f850160051c810160208610156108845750805b601f850160051c820191505b818110156108a357828155600101610890565b5050505b505050565b815167ffffffffffffffff8111156108c6576108c6610796565b6108da816108d4845461071b565b8461085d565b602080601f83116001811461090f57600084156108f75750858301515b600019600386901b1c1916600185901b1785556108a3565b600085815260208120601f198616915b8281101561093e5788860151825594840194600190910190840161091f565b508582101561095c5787850151600019600388901b60f8161c191681555b5050505050600190811b0190555056fea26469706673582212201c44b7c97305cf1062e5f96016ce5fd9b0afa22644e025b47218fae89c316b5b64736f6c63430008120033",
  "linkReferences": {},
  "deployedLinkReferences": {}
}