{
  "_format": "hh-sol-artifact-1",
  "contractName": "ReceiveRandom",
  "sourceName": "contracts/ReceiveRandom.sol",
  "abi": [
    {
      "inputs": [
        {
          "internalType": "address",
          "name": "gateway_",
          "type": "address"
        },
        {
          "internalType": "address",
          "name": "gasReceiver_",
          "type": "address"
        },
        {
          "internalType": "string",
          "name": "chainName_",
          "type": "string"
        }
      ],
      "stateMutability": "nonpayable",
      "type": "constructor"
    },
    {
      "inputs": [],
      "name": "InvalidAddress",
      "type": "error"
    },
    {
      "inputs": [],
      "name": "NotApprovedByGateway",
      "type": "error"
    },
    {
      "inputs": [],
      "name": "chainName",
      "outputs": [
        {
          "internalType": "string",
          "name": "",
          "type": "string"
        }
      ],
      "stateMutability": "view",
      "type": "function"
    },
    {
      "inputs": [
        {
          "internalType": "bytes32",
          "name": "commandId",
          "type": "bytes32"
        },
        {
          "internalType": "string",
          "name": "sourceChain",
          "type": "string"
        },
        {
          "internalType": "string",
          "name": "sourceAddress",
          "type": "string"
        },
        {
          "internalType": "bytes",
          "name": "payload",
          "type": "bytes"
        }
      ],
      "name": "execute",
      "outputs": [],
      "stateMutability": "nonpayable",
      "type": "function"
    },
    {
      "inputs": [
        {
          "internalType": "bytes32",
          "name": "commandId",
          "type": "bytes32"
        },
        {
          "internalType": "string",
          "name": "sourceChain",
          "type": "string"
        },
        {
          "internalType": "string",
          "name": "sourceAddress",
          "type": "string"
        },
        {
          "internalType": "bytes",
          "name": "payload",
          "type": "bytes"
        },
        {
          "internalType": "string",
          "name": "tokenSymbol",
          "type": "string"
        },
        {
          "internalType": "uint256",
          "name": "amount",
          "type": "uint256"
        }
      ],
      "name": "executeWithToken",
      "outputs": [],
      "stateMutability": "nonpayable",
      "type": "function"
    },
    {
      "inputs": [],
      "name": "gasService",
      "outputs": [
        {
          "internalType": "contract IAxelarGasService",
          "name": "",
          "type": "address"
        }
      ],
      "stateMutability": "view",
      "type": "function"
    },
    {
      "inputs": [],
      "name": "gateway",
      "outputs": [
        {
          "internalType": "contract IAxelarGateway",
          "name": "",
          "type": "address"
        }
      ],
      "stateMutability": "view",
      "type": "function"
    },
    {
      "inputs": [],
      "name": "storedRandom",
      "outputs": [
        {
          "internalType": "bytes",
          "name": "random",
          "type": "bytes"
        }
      ],
      "stateMutability": "view",
      "type": "function"
    }
  ],
  "bytecode": "0x60c06040523480156200001157600080fd5b5060405162000c3538038062000c35833981016040819052620000349162000168565b826001600160a01b0381166200005d5760405163e6c4247b60e01b815260040160405180910390fd5b6001600160a01b03908116608052821660a0528051620000859060009060208401906200008f565b50505050620002a9565b8280546200009d906200026c565b90600052602060002090601f016020900481019282620000c157600085556200010c565b82601f10620000dc57805160ff19168380011785556200010c565b828001600101855582156200010c579182015b828111156200010c578251825591602001919060010190620000ef565b506200011a9291506200011e565b5090565b5b808211156200011a57600081556001016200011f565b80516001600160a01b03811681146200014d57600080fd5b919050565b634e487b7160e01b600052604160045260246000fd5b6000806000606084860312156200017e57600080fd5b620001898462000135565b925060206200019a81860162000135565b60408601519093506001600160401b0380821115620001b857600080fd5b818701915087601f830112620001cd57600080fd5b815181811115620001e257620001e262000152565b604051601f8201601f19908116603f011681019083821181831017156200020d576200020d62000152565b816040528281528a868487010111156200022657600080fd5b600093505b828410156200024a57848401860151818501870152928501926200022b565b828411156200025c5760008684830101525b8096505050505050509250925092565b600181811c908216806200028157607f821691505b60208210811415620002a357634e487b7160e01b600052602260045260246000fd5b50919050565b60805160a05161095a620002db600039600060ed015260008181606c0152818161014801526102c8015261095a6000f3fe608060405234801561001057600080fd5b50600436106100625760003560e01c8063116191b6146100675780631a98b2e0146100ab5780631c93b03a146100c057806349160658146100d55780636a22d8cc146100e8578063cc395c751461010f575b600080fd5b61008e7f000000000000000000000000000000000000000000000000000000000000000081565b6040516001600160a01b0390911681526020015b60405180910390f35b6100be6100b9366004610542565b610117565b005b6100c8610209565b6040516100a29190610669565b6100be6100e3366004610683565b610297565b61008e7f000000000000000000000000000000000000000000000000000000000000000081565b6100c861038e565b60008585604051610129929190610727565b604051908190038120631876eed960e01b825291506001600160a01b037f00000000000000000000000000000000000000000000000000000000000000001690631876eed99061018d908e908e908e908e908e9089908d908d908d90600401610760565b602060405180830381600087803b1580156101a757600080fd5b505af11580156101bb573d6000803e3d6000fd5b505050506040513d601f19601f820116820180604052508101906101df91906107bf565b6101fc57604051631403112d60e21b815260040160405180910390fd5b5050505050505050505050565b60008054610216906107e1565b80601f0160208091040260200160405190810160405280929190818152602001828054610242906107e1565b801561028f5780601f106102645761010080835404028352916020019161028f565b820191906000526020600020905b81548152906001019060200180831161027257829003601f168201915b505050505081565b600082826040516102a9929190610727565b604051908190038120635f6970c360e01b825291506001600160a01b037f00000000000000000000000000000000000000000000000000000000000000001690635f6970c390610307908b908b908b908b908b90899060040161081c565b602060405180830381600087803b15801561032157600080fd5b505af1158015610335573d6000803e3d6000fd5b505050506040513d601f19601f8201168201806040525081019061035991906107bf565b61037657604051631403112d60e21b815260040160405180910390fd5b610384878787878787610420565b5050505050505050565b60018054819061039d906107e1565b80601f01602080910402602001604051908101604052809291908181526020018280546103c9906107e1565b80156104165780601f106103eb57610100808354040283529160200191610416565b820191906000526020600020905b8154815290600101906020018083116103f957829003601f168201915b5050505050905081565b600061042e82840184610873565b604080516020808201909252828152825192935091600191610454918391860190610460565b50505050505050505050565b82805461046c906107e1565b90600052602060002090601f01602090048101928261048e57600085556104d4565b82601f106104a757805160ff19168380011785556104d4565b828001600101855582156104d4579182015b828111156104d45782518255916020019190600101906104b9565b506104e09291506104e4565b5090565b5b808211156104e057600081556001016104e5565b60008083601f84011261050b57600080fd5b50813567ffffffffffffffff81111561052357600080fd5b60208301915083602082850101111561053b57600080fd5b9250929050565b60008060008060008060008060008060c08b8d03121561056157600080fd5b8a35995060208b013567ffffffffffffffff8082111561058057600080fd5b61058c8e838f016104f9565b909b50995060408d01359150808211156105a557600080fd5b6105b18e838f016104f9565b909950975060608d01359150808211156105ca57600080fd5b6105d68e838f016104f9565b909750955060808d01359150808211156105ef57600080fd5b506105fc8d828e016104f9565b9150809450508092505060a08b013590509295989b9194979a5092959850565b6000815180845260005b8181101561064257602081850181015186830182015201610626565b81811115610654576000602083870101525b50601f01601f19169290920160200192915050565b60208152600061067c602083018461061c565b9392505050565b60008060008060008060006080888a03121561069e57600080fd5b87359650602088013567ffffffffffffffff808211156106bd57600080fd5b6106c98b838c016104f9565b909850965060408a01359150808211156106e257600080fd5b6106ee8b838c016104f9565b909650945060608a013591508082111561070757600080fd5b506107148a828b016104f9565b989b979a50959850939692959293505050565b8183823760009101908152919050565b81835281816020850137506000828201602090810191909152601f909101601f19169091010190565b89815260c06020820152600061077a60c083018a8c610737565b828103604084015261078d81898b610737565b905086606084015282810360808401526107a8818688610737565b9150508260a08301529a9950505050505050505050565b6000602082840312156107d157600080fd5b8151801515811461067c57600080fd5b600181811c908216806107f557607f821691505b6020821081141561081657634e487b7160e01b600052602260045260246000fd5b50919050565b868152608060208201526000610836608083018789610737565b8281036040840152610849818688610737565b915050826060830152979650505050505050565b634e487b7160e01b600052604160045260246000fd5b60006020828403121561088557600080fd5b813567ffffffffffffffff8082111561089d57600080fd5b818401915084601f8301126108b157600080fd5b8135818111156108c3576108c361085d565b604051601f8201601f19908116603f011681019083821181831017156108eb576108eb61085d565b8160405282815287602084870101111561090457600080fd5b82602086016020830137600092810160200192909252509594505050505056fea2646970667358221220b1352398e017cd738fc6fcef2f39833ed779e54b2d27ed96f7f51ff76ac771ad64736f6c63430008090033",
  "linkReferences": {},
  "deployedLinkReferences": {}
}