{
  "_format": "hh-sol-artifact-1",
  "contractName": "SendReceiveEncrypt",
  "sourceName": "contracts/SendReceiveEncrypt.sol",
  "abi": [
    {
      "inputs": [
        {
          "internalType": "address",
          "name": "gateway_",
          "type": "address"
        },
        {
          "internalType": "address",
          "name": "gasReceiver_",
          "type": "address"
        },
        {
          "internalType": "string",
          "name": "chainName_",
          "type": "string"
        }
      ],
      "stateMutability": "nonpayable",
      "type": "constructor"
    },
    {
      "inputs": [],
      "name": "InvalidAddress",
      "type": "error"
    },
    {
      "inputs": [],
      "name": "NotApprovedByGateway",
      "type": "error"
    },
    {
      "inputs": [],
      "name": "chainName",
      "outputs": [
        {
          "internalType": "string",
          "name": "",
          "type": "string"
        }
      ],
      "stateMutability": "view",
      "type": "function"
    },
    {
      "inputs": [
        {
          "internalType": "bytes32",
          "name": "commandId",
          "type": "bytes32"
        },
        {
          "internalType": "string",
          "name": "sourceChain",
          "type": "string"
        },
        {
          "internalType": "string",
          "name": "sourceAddress",
          "type": "string"
        },
        {
          "internalType": "bytes",
          "name": "payload",
          "type": "bytes"
        }
      ],
      "name": "execute",
      "outputs": [],
      "stateMutability": "nonpayable",
      "type": "function"
    },
    {
      "inputs": [
        {
          "internalType": "bytes32",
          "name": "commandId",
          "type": "bytes32"
        },
        {
          "internalType": "string",
          "name": "sourceChain",
          "type": "string"
        },
        {
          "internalType": "string",
          "name": "sourceAddress",
          "type": "string"
        },
        {
          "internalType": "bytes",
          "name": "payload",
          "type": "bytes"
        },
        {
          "internalType": "string",
          "name": "tokenSymbol",
          "type": "string"
        },
        {
          "internalType": "uint256",
          "name": "amount",
          "type": "uint256"
        }
      ],
      "name": "executeWithToken",
      "outputs": [],
      "stateMutability": "nonpayable",
      "type": "function"
    },
    {
      "inputs": [],
      "name": "gasService",
      "outputs": [
        {
          "internalType": "contract IAxelarGasService",
          "name": "",
          "type": "address"
        }
      ],
      "stateMutability": "view",
      "type": "function"
    },
    {
      "inputs": [],
      "name": "gateway",
      "outputs": [
        {
          "internalType": "contract IAxelarGateway",
          "name": "",
          "type": "address"
        }
      ],
      "stateMutability": "view",
      "type": "function"
    },
    {
      "inputs": [
        {
          "internalType": "string",
          "name": "destinationChain",
          "type": "string"
        },
        {
          "internalType": "string",
          "name": "destinationAddress",
          "type": "string"
        },
        {
          "internalType": "bytes",
          "name": "message",
          "type": "bytes"
        }
      ],
      "name": "send",
      "outputs": [],
      "stateMutability": "payable",
      "type": "function"
    },
    {
      "inputs": [],
      "name": "storedEncrypt",
      "outputs": [
        {
          "internalType": "bytes",
          "name": "encrypted_data",
          "type": "bytes"
        }
      ],
      "stateMutability": "view",
      "type": "function"
    }
  ],
  "bytecode": "0x60c06040523480156200001157600080fd5b506040516200165138038062001651833981016040819052620000349162000168565b826001600160a01b0381166200005d5760405163e6c4247b60e01b815260040160405180910390fd5b6001600160a01b03908116608052821660a0528051620000859060009060208401906200008f565b50505050620002a9565b8280546200009d906200026c565b90600052602060002090601f016020900481019282620000c157600085556200010c565b82601f10620000dc57805160ff19168380011785556200010c565b828001600101855582156200010c579182015b828111156200010c578251825591602001919060010190620000ef565b506200011a9291506200011e565b5090565b5b808211156200011a57600081556001016200011f565b80516001600160a01b03811681146200014d57600080fd5b919050565b634e487b7160e01b600052604160045260246000fd5b6000806000606084860312156200017e57600080fd5b620001898462000135565b925060206200019a81860162000135565b60408601519093506001600160401b0380821115620001b857600080fd5b818701915087601f830112620001cd57600080fd5b815181811115620001e257620001e262000152565b604051601f8201601f19908116603f011681019083821181831017156200020d576200020d62000152565b816040528281528a868487010111156200022657600080fd5b600093505b828410156200024a57848401860151818501870152928501926200022b565b828411156200025c5760008684830101525b8096505050505050509250925092565b600181811c908216806200028157607f821691505b60208210811415620002a357634e487b7160e01b600052602260045260246000fd5b50919050565b60805160a051611367620002ea6000396000818161014f015261033b0152600081816087015281816101b7015281816103d8015261048501526113676000f3fe6080604052600436106100705760003560e01c80631e0d43b91161004e5780631e0d43b91461010a578063491606581461011d5780636a22d8cc1461013d578063a8b99fd61461017157600080fd5b8063116191b6146100755780631a98b2e0146100c65780631c93b03a146100e8575b600080fd5b34801561008157600080fd5b506100a97f000000000000000000000000000000000000000000000000000000000000000081565b6040516001600160a01b0390911681526020015b60405180910390f35b3480156100d257600080fd5b506100e66100e1366004610ba9565b610186565b005b3480156100f457600080fd5b506100fd610278565b6040516100bd9190610cdf565b6100e6610118366004610cf9565b610306565b34801561012957600080fd5b506100e6610138366004610d93565b610454565b34801561014957600080fd5b506100a97f000000000000000000000000000000000000000000000000000000000000000081565b34801561017d57600080fd5b506100fd61054b565b60008585604051610198929190610e37565b604051908190038120631876eed960e01b825291506001600160a01b037f00000000000000000000000000000000000000000000000000000000000000001690631876eed9906101fc908e908e908e908e908e9089908d908d908d90600401610e70565b602060405180830381600087803b15801561021657600080fd5b505af115801561022a573d6000803e3d6000fd5b505050506040513d601f19601f8201168201806040525081019061024e9190610ecf565b61026b57604051631403112d60e21b815260040160405180910390fd5b5050505050505050505050565b6000805461028590610ef1565b80601f01602080910402602001604051908101604052809291908181526020018280546102b190610ef1565b80156102fe5780601f106102d3576101008083540402835291602001916102fe565b820191906000526020600020905b8154815290600101906020018083116102e157829003601f168201915b505050505081565b6000828260405160200161031b929190610f2c565b60405160208183030381529060405290506000610337826105dd565b90507f00000000000000000000000000000000000000000000000000000000000000006001600160a01b0316630c93e3bb34308b8b8b8b88336040518963ffffffff1660e01b81526004016103929796959493929190610f48565b6000604051808303818588803b1580156103ab57600080fd5b505af11580156103bf573d6000803e3d6000fd5b5050604051631c92115f60e01b81526001600160a01b037f0000000000000000000000000000000000000000000000000000000000000000169350631c92115f925061041891508b908b908b908b908890600401610faa565b600060405180830381600087803b15801561043257600080fd5b505af1158015610446573d6000803e3d6000fd5b505050505050505050505050565b60008282604051610466929190610e37565b604051908190038120635f6970c360e01b825291506001600160a01b037f00000000000000000000000000000000000000000000000000000000000000001690635f6970c3906104c4908b908b908b908b908b908990600401610ff1565b602060405180830381600087803b1580156104de57600080fd5b505af11580156104f2573d6000803e3d6000fd5b505050506040513d601f19601f820116820180604052508101906105169190610ecf565b61053357604051631403112d60e21b815260040160405180910390fd5b61054187878787878761083c565b5050505050505050565b60018054819061055a90610ef1565b80601f016020809104026020016040519081016040528092919081815260200182805461058690610ef1565b80156105d35780601f106105a8576101008083540402835291602001916105d3565b820191906000526020600020905b8154815290600101906020018083116105b657829003601f168201915b5050505050905081565b60606000806105eb3061087c565b846040516020016105fe93929190611032565b60408051808303601f19018152600380845260808401909252925060009190816020015b60608152602001906001900390816106225790505090506040518060400160405280600c81526020016b39b7bab931b2afb1b430b4b760a11b8152508160008151811061067157610671611119565b60200260200101819052506040518060400160405280600e81526020016d736f757263655f6164647265737360901b815250816001815181106106b6576106b6611119565b6020026020010181905250604051806040016040528060078152602001661c185e5b1bd85960ca1b815250816002815181106106f4576106f4611119565b602090810291909101015260408051600380825260808201909252600091816020015b606081526020019060019003908161071757905050905060405180604001604052806006815260200165737472696e6760d01b8152508160008151811061076057610760611119565b602002602001018190525060405180604001604052806006815260200165737472696e6760d01b8152508160018151811061079d5761079d611119565b602002602001018190525060405180604001604052806005815260200164627974657360d81b815250816002815181106107d9576107d9611119565b602002602001018190525060608282856040516020016107fb93929190611184565b60408051601f1981840301815290829052915061082290600160e01b9083906020016111e7565b604051602081830303815290604052945050505050919050565b600061084a82840184611218565b604080516020808201909252828152825192935091600191610870918391860190610ac7565b50505050505050505050565b604051606082811b6bffffffffffffffffffffffff191660208301529060009060340160408051601f198184030181528282528051838301909252601083526f181899199a1a9b1b9c1cb0b131b232b360811b602084015280519093509091906000906108ea9060026112df565b6108f59060026112fe565b67ffffffffffffffff81111561090d5761090d611103565b6040519080825280601f01601f191660200182016040528015610937576020820181803683370190505b509050600360fc1b8160008151811061095257610952611119565b60200101906001600160f81b031916908160001a905350600f60fb1b8160018151811061098157610981611119565b60200101906001600160f81b031916908160001a90535060005b83811015610abd578260048683815181106109b8576109b8611119565b016020015182516001600160f81b031990911690911c60f81c9081106109e0576109e0611119565b01602001516001600160f81b031916826109fb8360026112df565b610a069060026112fe565b81518110610a1657610a16611119565b60200101906001600160f81b031916908160001a90535082858281518110610a4057610a40611119565b602091010151815160f89190911c600f16908110610a6057610a60611119565b01602001516001600160f81b03191682610a7b8360026112df565b610a869060036112fe565b81518110610a9657610a96611119565b60200101906001600160f81b031916908160001a905350610ab681611316565b905061099b565b5095945050505050565b828054610ad390610ef1565b90600052602060002090601f016020900481019282610af55760008555610b3b565b82601f10610b0e57805160ff1916838001178555610b3b565b82800160010185558215610b3b579182015b82811115610b3b578251825591602001919060010190610b20565b50610b47929150610b4b565b5090565b5b80821115610b475760008155600101610b4c565b60008083601f840112610b7257600080fd5b50813567ffffffffffffffff811115610b8a57600080fd5b602083019150836020828501011115610ba257600080fd5b9250929050565b60008060008060008060008060008060c08b8d031215610bc857600080fd5b8a35995060208b013567ffffffffffffffff80821115610be757600080fd5b610bf38e838f01610b60565b909b50995060408d0135915080821115610c0c57600080fd5b610c188e838f01610b60565b909950975060608d0135915080821115610c3157600080fd5b610c3d8e838f01610b60565b909750955060808d0135915080821115610c5657600080fd5b50610c638d828e01610b60565b9150809450508092505060a08b013590509295989b9194979a5092959850565b60005b83811015610c9e578181015183820152602001610c86565b83811115610cad576000848401525b50505050565b60008151808452610ccb816020860160208601610c83565b601f01601f19169290920160200192915050565b602081526000610cf26020830184610cb3565b9392505050565b60008060008060008060608789031215610d1257600080fd5b863567ffffffffffffffff80821115610d2a57600080fd5b610d368a838b01610b60565b90985096506020890135915080821115610d4f57600080fd5b610d5b8a838b01610b60565b90965094506040890135915080821115610d7457600080fd5b50610d8189828a01610b60565b979a9699509497509295939492505050565b60008060008060008060006080888a031215610dae57600080fd5b87359650602088013567ffffffffffffffff80821115610dcd57600080fd5b610dd98b838c01610b60565b909850965060408a0135915080821115610df257600080fd5b610dfe8b838c01610b60565b909650945060608a0135915080821115610e1757600080fd5b50610e248a828b01610b60565b989b979a50959850939692959293505050565b8183823760009101908152919050565b81835281816020850137506000828201602090810191909152601f909101601f19169091010190565b89815260c060208201526000610e8a60c083018a8c610e47565b8281036040840152610e9d81898b610e47565b90508660608401528281036080840152610eb8818688610e47565b9150508260a08301529a9950505050505050505050565b600060208284031215610ee157600080fd5b81518015158114610cf257600080fd5b600181811c90821680610f0557607f821691505b60208210811415610f2657634e487b7160e01b600052602260045260246000fd5b50919050565b602081526000610f40602083018486610e47565b949350505050565b600060018060a01b03808a16835260a06020840152610f6b60a08401898b610e47565b8381036040850152610f7e81888a610e47565b90508381036060850152610f928187610cb3565b92505080841660808401525098975050505050505050565b606081526000610fbe606083018789610e47565b8281036020840152610fd1818688610e47565b90508281036040840152610fe58185610cb3565b98975050505050505050565b86815260806020820152600061100b608083018789610e47565b828103604084015261101e818688610e47565b915050826060830152979650505050505050565b60608152600080855481600182811c91508083168061105257607f831692505b602080841082141561107257634e487b7160e01b86526022600452602486fd5b606088018490526080880182801561109157600181146110a2576110cd565b60ff198716825282820197506110cd565b60008d81526020902060005b878110156110c7578154848201529086019084016110ae565b83019850505b50508786038189015250505050506110e58186610cb3565b905082810360408401526110f98185610cb3565b9695505050505050565b634e487b7160e01b600052604160045260246000fd5b634e487b7160e01b600052603260045260246000fd5b600081518084526020808501808196508360051b8101915082860160005b85811015611177578284038952611165848351610cb3565b9885019893509084019060010161114d565b5091979650505050505050565b608081526013608082015272726563656976655f6d6573736167655f65766d60681b60a082015260c0602082015260006111c160c083018661112f565b82810360408401526111d3818661112f565b905082810360608401526110f98185610cb3565b6001600160e01b031983168152815160009061120a816004850160208701610c83565b919091016004019392505050565b60006020828403121561122a57600080fd5b813567ffffffffffffffff8082111561124257600080fd5b818401915084601f83011261125657600080fd5b81358181111561126857611268611103565b604051601f8201601f19908116603f0116810190838211818310171561129057611290611103565b816040528281528760208487010111156112a957600080fd5b826020860160208301376000928101602001929092525095945050505050565b634e487b7160e01b600052601160045260246000fd5b60008160001904831182151516156112f9576112f96112c9565b500290565b60008219821115611311576113116112c9565b500190565b600060001982141561132a5761132a6112c9565b506001019056fea2646970667358221220ccbaddd804a841eb9c48112365aa26faa37ae04262b901d651d9d76e8064abd264736f6c63430008090033",
  "linkReferences": {},
  "deployedLinkReferences": {}
}